{
  "contractName": "Tunnelwall",
  "abi": [
    {
      "inputs": [],
      "stateMutability": "nonpayable",
      "type": "constructor"
    },
    {
      "inputs": [
        {
          "internalType": "bytes32",
          "name": "_text",
          "type": "bytes32"
        }
      ],
      "name": "write",
      "outputs": [
        {
          "internalType": "uint256",
          "name": "",
          "type": "uint256"
        }
      ],
      "stateMutability": "nonpayable",
      "type": "function"
    },
    {
      "inputs": [
        {
          "internalType": "uint256",
          "name": "_uid",
          "type": "uint256"
        }
      ],
      "name": "read",
      "outputs": [
        {
          "components": [
            {
              "internalType": "bytes32",
              "name": "text",
              "type": "bytes32"
            },
            {
              "internalType": "address",
              "name": "sender",
              "type": "address"
            },
            {
              "internalType": "uint256",
              "name": "timestamp",
              "type": "uint256"
            }
          ],
          "internalType": "struct Tunnelwall.Message",
          "name": "",
          "type": "tuple"
        }
      ],
      "stateMutability": "view",
      "type": "function"
    },
    {
      "inputs": [],
      "name": "readLast",
      "outputs": [
        {
          "components": [
            {
              "internalType": "bytes32",
              "name": "text",
              "type": "bytes32"
            },
            {
              "internalType": "address",
              "name": "sender",
              "type": "address"
            },
            {
              "internalType": "uint256",
              "name": "timestamp",
              "type": "uint256"
            }
          ],
          "internalType": "struct Tunnelwall.Message",
          "name": "",
          "type": "tuple"
        }
      ],
      "stateMutability": "view",
      "type": "function"
    },
    {
      "inputs": [],
      "name": "getUid",
      "outputs": [
        {
          "internalType": "uint256",
          "name": "",
          "type": "uint256"
        }
      ],
      "stateMutability": "view",
      "type": "function"
    }
  ],
  "bytecode": "0x608060405234801561001057600080fd5b50336000806101000a81548173ffffffffffffffffffffffffffffffffffffffff021916908373ffffffffffffffffffffffffffffffffffffffff160217905550600060018190555060405180606001604052807f5468652074756e6e656c20626567696e7320686572652e00000000000000000060001b815260200160008054906101000a900473ffffffffffffffffffffffffffffffffffffffff1673ffffffffffffffffffffffffffffffffffffffff168152602001428152506002600060015481526020019081526020016000206000820151816000015560208201518160010160006101000a81548173ffffffffffffffffffffffffffffffffffffffff021916908373ffffffffffffffffffffffffffffffffffffffff160217905550604082015181600201559050506105798061014f6000396000f3fe608060405234801561001057600080fd5b506004361061004c5760003560e01c80633d0e6f191461005157806382b3117f1461006f578063e020def21461008d578063ed2e5a97146100bd575b600080fd5b6100596100ed565b604051610066919061043c565b60405180910390f35b6100776100f7565b6040516100849190610421565b60405180910390f35b6100a760048036038101906100a29190610351565b61018e565b6040516100b4919061043c565b60405180910390f35b6100d760048036038101906100d2919061037a565b610256565b6040516100e49190610421565b60405180910390f35b6000600154905090565b6100ff6102ed565b600260006001548152602001908152602001600020604051806060016040529081600082015481526020016001820160009054906101000a900473ffffffffffffffffffffffffffffffffffffffff1673ffffffffffffffffffffffffffffffffffffffff1673ffffffffffffffffffffffffffffffffffffffff168152602001600282015481525050905090565b6000600160008154809291906101a39061049d565b919050555060405180606001604052808381526020013373ffffffffffffffffffffffffffffffffffffffff168152602001428152506002600060015481526020019081526020016000206000820151816000015560208201518160010160006101000a81548173ffffffffffffffffffffffffffffffffffffffff021916908373ffffffffffffffffffffffffffffffffffffffff160217905550604082015181600201559050506001549050919050565b61025e6102ed565b60026000838152602001908152602001600020604051806060016040529081600082015481526020016001820160009054906101000a900473ffffffffffffffffffffffffffffffffffffffff1673ffffffffffffffffffffffffffffffffffffffff1673ffffffffffffffffffffffffffffffffffffffff1681526020016002820154815250509050919050565b604051806060016040528060008019168152602001600073ffffffffffffffffffffffffffffffffffffffff168152602001600081525090565b60008135905061033681610515565b92915050565b60008135905061034b8161052c565b92915050565b60006020828403121561036357600080fd5b600061037184828501610327565b91505092915050565b60006020828403121561038c57600080fd5b600061039a8482850161033c565b91505092915050565b6103ac81610457565b82525050565b6103bb81610469565b82525050565b6060820160008201516103d760008501826103b2565b5060208201516103ea60208501826103a3565b5060408201516103fd6040850182610403565b50505050565b61040c81610493565b82525050565b61041b81610493565b82525050565b600060608201905061043660008301846103c1565b92915050565b60006020820190506104516000830184610412565b92915050565b600061046282610473565b9050919050565b6000819050919050565b600073ffffffffffffffffffffffffffffffffffffffff82169050919050565b6000819050919050565b60006104a882610493565b91507fffffffffffffffffffffffffffffffffffffffffffffffffffffffffffffffff8214156104db576104da6104e6565b5b600182019050919050565b7f4e487b7100000000000000000000000000000000000000000000000000000000600052601160045260246000fd5b61051e81610469565b811461052957600080fd5b50565b61053581610493565b811461054057600080fd5b5056fea26469706673582212208b3fb8bfc5da1b952147b15d53e7359057d5a43d76f2c7bac416b7821d54a30b64736f6c63430008010033",
  "immutableReferences": {},
  "source": "// SPDX-License-Identifier: MIT\r\npragma solidity >=0.4.16 <0.9.0;\r\n\r\n/*\r\n * @author Josh Stow\r\n */\r\ncontract Tunnelwall {\r\n    \r\n    struct Message {\r\n        bytes32 text;   // max 32 char message in hex\r\n        address sender; // address of message origin\r\n        uint256 timestamp;  //  time of upload in unix\r\n    }\r\n\r\n    address private owner;\r\n\r\n    uint256 uid;\r\n\r\n    mapping(uint256 => Message) Wall;\r\n    \r\n    /*\r\n     * @dev Set first item in Wall mapping when contract is deployed\r\n     */\r\n    constructor () {\r\n        owner = msg.sender;\r\n        uid = 0;\r\n        Wall[uid] = Message(\r\n            0x5468652074756e6e656c20626567696e7320686572652e000000000000000000,\r\n            owner,\r\n            block.timestamp\r\n        );\r\n    }\r\n\r\n    /*\r\n     * @dev Append users message to Wall mapping\r\n     * @param _text message from user\r\n     * @return uid id of latest message\r\n     */\r\n    function write(bytes32 _text) public returns(uint256) {\r\n        uid++;\r\n        Wall[uid] = Message(\r\n            _text,\r\n            msg.sender,\r\n            block.timestamp\r\n        );\r\n        return uid;\r\n    }\r\n\r\n    /*\r\n     * @dev Read specified item in Wall mapping\r\n     * @param _uid id of message to be read\r\n     * @return Message text and timestamp at specified uid value\r\n     */\r\n    function read(uint256 _uid) view public returns(Message memory) {\r\n        return Wall[_uid];\r\n    }\r\n\r\n    /*\r\n     * @dev Read latest item in Wall mapping\r\n     * @return Message text and timestamp at current uid value\r\n     */\r\n    function readLast() view public returns(Message memory) {\r\n        return Wall[uid];\r\n    }\r\n\r\n    /*\r\n     * @dev Read current value of uid var\r\n     * @return uid id of latest message\r\n     */\r\n    function getUid() view public returns(uint256) {\r\n        return uid;\r\n    }\r\n}",
  "sourcePath": "C:/Users/Josh/Documents/Josh/GitHub/tunnelwall/blockchain/contracts/Tunnelwall.sol",
  "compiler": {
    "name": "solc",
    "version": "0.8.1+commit.df193b15.Emscripten.clang"
  },
  "schemaVersion": "3.3.3",
  "updatedAt": "2021-02-11T00:06:23.265Z",
  "devdoc": {
    "kind": "dev",
    "methods": {},
    "version": 1
  },
  "userdoc": {
    "kind": "user",
    "methods": {},
    "version": 1
  }
}