{
  "contractName": "Tunnelwall",
  "abi": [
    {
      "inputs": [],
      "stateMutability": "nonpayable",
      "type": "constructor"
    },
    {
      "inputs": [
        {
          "internalType": "bytes32",
          "name": "_text",
          "type": "bytes32"
        }
      ],
      "name": "write",
      "outputs": [],
      "stateMutability": "nonpayable",
      "type": "function"
    },
    {
      "inputs": [
        {
          "internalType": "uint256",
          "name": "_uid",
          "type": "uint256"
        }
      ],
      "name": "read",
      "outputs": [
        {
          "components": [
            {
              "internalType": "bytes32",
              "name": "text",
              "type": "bytes32"
            },
            {
              "internalType": "address",
              "name": "sender",
              "type": "address"
            },
            {
              "internalType": "uint256",
              "name": "timestamp",
              "type": "uint256"
            }
          ],
          "internalType": "struct Tunnelwall.Message",
          "name": "",
          "type": "tuple"
        }
      ],
      "stateMutability": "view",
      "type": "function"
    },
    {
      "inputs": [],
      "name": "readLast",
      "outputs": [
        {
          "components": [
            {
              "internalType": "bytes32",
              "name": "text",
              "type": "bytes32"
            },
            {
              "internalType": "address",
              "name": "sender",
              "type": "address"
            },
            {
              "internalType": "uint256",
              "name": "timestamp",
              "type": "uint256"
            }
          ],
          "internalType": "struct Tunnelwall.Message",
          "name": "",
          "type": "tuple"
        }
      ],
      "stateMutability": "view",
      "type": "function"
    },
    {
      "inputs": [],
      "name": "getUid",
      "outputs": [
        {
          "internalType": "uint256",
          "name": "",
          "type": "uint256"
        }
      ],
      "stateMutability": "view",
      "type": "function"
    }
  ],
  "bytecode": "0x608060405234801561001057600080fd5b50336000806101000a81548173ffffffffffffffffffffffffffffffffffffffff021916908373ffffffffffffffffffffffffffffffffffffffff160217905550600060018190555060405180606001604052807f5468652074756e6e656c20626567696e7320686572652e00000000000000000060001b815260200160008054906101000a900473ffffffffffffffffffffffffffffffffffffffff1673ffffffffffffffffffffffffffffffffffffffff168152602001428152506002600060015481526020019081526020016000206000820151816000015560208201518160010160006101000a81548173ffffffffffffffffffffffffffffffffffffffff021916908373ffffffffffffffffffffffffffffffffffffffff1602179055506040820151816002015590505061055c8061014f6000396000f3fe608060405234801561001057600080fd5b506004361061004c5760003560e01c80633d0e6f191461005157806382b3117f1461006f578063e020def21461008d578063ed2e5a97146100a9575b600080fd5b6100596100d9565b604051610066919061041f565b60405180910390f35b6100776100e3565b6040516100849190610404565b60405180910390f35b6100a760048036038101906100a29190610334565b61017a565b005b6100c360048036038101906100be919061035d565b610239565b6040516100d09190610404565b60405180910390f35b6000600154905090565b6100eb6102d0565b600260006001548152602001908152602001600020604051806060016040529081600082015481526020016001820160009054906101000a900473ffffffffffffffffffffffffffffffffffffffff1673ffffffffffffffffffffffffffffffffffffffff1673ffffffffffffffffffffffffffffffffffffffff168152602001600282015481525050905090565b6001600081548092919061018d90610480565b919050555060405180606001604052808281526020013373ffffffffffffffffffffffffffffffffffffffff168152602001428152506002600060015481526020019081526020016000206000820151816000015560208201518160010160006101000a81548173ffffffffffffffffffffffffffffffffffffffff021916908373ffffffffffffffffffffffffffffffffffffffff1602179055506040820151816002015590505050565b6102416102d0565b60026000838152602001908152602001600020604051806060016040529081600082015481526020016001820160009054906101000a900473ffffffffffffffffffffffffffffffffffffffff1673ffffffffffffffffffffffffffffffffffffffff1673ffffffffffffffffffffffffffffffffffffffff1681526020016002820154815250509050919050565b604051806060016040528060008019168152602001600073ffffffffffffffffffffffffffffffffffffffff168152602001600081525090565b600081359050610319816104f8565b92915050565b60008135905061032e8161050f565b92915050565b60006020828403121561034657600080fd5b60006103548482850161030a565b91505092915050565b60006020828403121561036f57600080fd5b600061037d8482850161031f565b91505092915050565b61038f8161043a565b82525050565b61039e8161044c565b82525050565b6060820160008201516103ba6000850182610395565b5060208201516103cd6020850182610386565b5060408201516103e060408501826103e6565b50505050565b6103ef81610476565b82525050565b6103fe81610476565b82525050565b600060608201905061041960008301846103a4565b92915050565b600060208201905061043460008301846103f5565b92915050565b600061044582610456565b9050919050565b6000819050919050565b600073ffffffffffffffffffffffffffffffffffffffff82169050919050565b6000819050919050565b600061048b82610476565b91507fffffffffffffffffffffffffffffffffffffffffffffffffffffffffffffffff8214156104be576104bd6104c9565b5b600182019050919050565b7f4e487b7100000000000000000000000000000000000000000000000000000000600052601160045260246000fd5b6105018161044c565b811461050c57600080fd5b50565b61051881610476565b811461052357600080fd5b5056fea2646970667358221220f115abb6b12171e6cb2b9b69b93c8e728031697b36215d5390b0f5b2df7b98f364736f6c63430008010033",
  "immutableReferences": {},
  "source": "// SPDX-License-Identifier: MIT\r\npragma solidity >=0.4.16 <0.9.0;\r\n\r\n/*\r\n * @author Josh Stow\r\n */\r\ncontract Tunnelwall {\r\n    \r\n    struct Message {\r\n        bytes32 text;   // max 32 char message in hex\r\n        address sender; // address of message origin\r\n        uint256 timestamp;  //  time of upload in unix\r\n    }\r\n\r\n    address private owner;\r\n\r\n    uint256 uid;\r\n\r\n    mapping(uint256 => Message) Wall;\r\n    \r\n    /*\r\n     * @dev Set first item in Wall mapping when contract is deployed\r\n     */\r\n    constructor () {\r\n        owner = msg.sender;\r\n        uid = 0;\r\n        Wall[uid] = Message(\r\n            0x5468652074756e6e656c20626567696e7320686572652e000000000000000000,\r\n            owner,\r\n            block.timestamp\r\n        );\r\n    }\r\n\r\n    /*\r\n     * @dev Append users message to Wall mapping\r\n     * @param _text message from user\r\n     */\r\n    function write(bytes32 _text) public {\r\n        uid++;\r\n        Wall[uid] = Message(\r\n            _text,\r\n            msg.sender,\r\n            block.timestamp\r\n        );\r\n    }\r\n\r\n    /*\r\n     * @dev Read specified item in Wall mapping\r\n     * @param _uid id of message to be read\r\n     * @return Message text and timestamp at specified uid value\r\n     */\r\n    function read(uint256 _uid) view public returns(Message memory) {\r\n        return Wall[_uid];\r\n    }\r\n\r\n    /*\r\n     * @dev Read latest item in Wall mapping\r\n     * @return Message text and timestamp at current uid value\r\n     */\r\n    function readLast() view public returns(Message memory) {\r\n        return Wall[uid];\r\n    }\r\n\r\n    /*\r\n     * @dev Read current value of uid var\r\n     * @return uid id of latest message\r\n     */\r\n    function getUid() view public returns(uint256) {\r\n        return uid;\r\n    }\r\n}",
  "sourcePath": "C:/Users/Josh/Documents/Josh/GitHub/tunnelwall/blockchain/contracts/Tunnelwall.sol",
  "compiler": {
    "name": "solc",
    "version": "0.8.1+commit.df193b15.Emscripten.clang"
  },
  "schemaVersion": "3.3.3",
  "updatedAt": "2021-02-09T21:03:35.535Z",
  "devdoc": {
    "kind": "dev",
    "methods": {},
    "version": 1
  },
  "userdoc": {
    "kind": "user",
    "methods": {},
    "version": 1
  }
}